:100000000C9459010C9481010C9481010C94810190
:100010000C9481010C9481010C9481010C94810158
:100020000C9481010C9481010C9481010C94810148
:100030000C9481010C9481010C9481010C94810138
:100040000C940B050C9481010C940B040C94E503A7
:100050000C9481010C9481010C9481010C94810118
:100060000C94580A0C94810100407A10F35A00A0B5
:10007000724E18090010A5D4E80000E87648170071
:1000800000E40B54020000CA9A3B000000E1F505B1
:10009000000080969800000040420F000000A086FB
:1000A00001000000102700000000E803000000002D
:1000B0006400000000000A000000000001000000D1
:1000C00000002C76D888DC674F0823DFC1DFAE59EB
:1000D000E1B1B796E5E3E453C63AE651997696E87E
:1000E000E6C28426EB898C9B62ED407C6FFCEFBC02
:1000F0009C9F40F2BAA56FA5F490055A2AF75C932D
:100100006B6CF9676DC11BFCE0E40D47FEF520E662
:10011000B500D0ED902E0300943577050080841E45
:10012000080000204E0A000000C80C333333330FA0
:10013000986E12831141EF8D2114893BE65516CF3D
:10014000FEE6DB18D1844B381BF77C1D901DA4BB49
:10015000E424203284725E228100C9F124ECA1E5FE
:100160003D274500008200004000203C68746D6C13
:100170003E3C686561643E3C7469746C653E5765DD
:100180006220436F6E74726F6C3C2F7469746C657F
:100190003E3C2F686561643E3C626F64793E3C6220
:1001A0006F6479206267636F6C6F723D2363636372
:1001B0006366663E3C666F6E742073697A653D3691
:1001C0003E3C63656E7465723E54656D7065726128
:1001D000747572652E2E2E203A203C623E202453E8
:1001E00020266465673B43203C2F623E48756D695D
:1001F000646974792E2E2E203A203C623E202453CE
:1002000020253C2F623E3C2F626F64793E3C2F6874
:10021000746D6C3E00485454502F312E30203230D3
:1002200030204F4B0D0A436F6E74656E742D5479F8
:1002300070653A20746578742F68746D6C0D0A507F
:100240007261676D613A206E6F2D63616368650D41
:100250000A0D0A00638253630001080006040001CE
:1002600000000000240027002A00000000002500F4
:1002700028002B0004040404040404040202020203
:100280000202030303030303010204081020408059
:1002900001020408102001020408102000000008D8
:1002A000000201000003040700000000000000003D
:1002B000FC1311241FBECFEFD8E0DEBFCDBF12E08C
:1002C000A0E0B1E0EEE4F1E302C005900D92A830A9
:1002D000B107D9F726E0A8E0B2E001C01D92A3392A
:1002E000B207E1F711E0C9E5D1E004C02197FE01B2
:1002F0000E947718C835D107C9F70E94B70B0C9434
:10030000A5180C940000CF92DF92EF92FF920F930A
:100310001F93CF93DF936C017A018B01C0E0D0E093
:10032000CE15DF0589F0D8016D918D01D601ED91D3
:10033000FC910190F081E02DC6010995892B11F403
:100340007E0102C02196ECCFC701DF91CF911F91B2
:100350000F91FF90EF90DF90CF900895FC01538DA7
:10036000448D252F30E0842F90E0821B930B54178F
:1003700010F0CF96089501970895FC01918D828D1C
:10038000981761F0828DDF01A80FB11D5D968C91E9
:10039000928D9F5F9F73928F90E008958FEF9FEFF4
:1003A0000895FC01918D828D981731F0828DE80FB0
:1003B000F11D858D90E008958FEF9FEF0895FC016A
:1003C000918D228D892F90E0805C9F4F821B910937
:1003D0008F73992708958AEE95E00E94DF0121E04E
:1003E000892B09F420E0822F0895FC01848DDF0120
:1003F000A80FB11DA35ABF4F2C91848D90E0019698
:100400008F739927848FA689B7892C93A089B18986
:100410008C9180648C93938D848D981306C0028890
:10042000F389E02D80818F7D80830895EF92FF9284
:100430000F931F93CF93DF93EC0181E0888F9B8D07
:100440008C8D981305C0E889F989808185FD24C0C9
:10045000F62E0B8D10E00F5F1F4F0F731127E02E4C
:100460008C8DE8120CC00FB607FCFACFE889F98929
:10047000808185FFF5CFCE010E94F501F1CF8B8DF4
:10048000FE01E80FF11DE35AFF4FF0820B8FEA895E
:10049000FB898081806207C0EE89FF896083E889DB
:1004A000F98980818064808381E090E0DF91CF9141
:1004B0001F910F91FF90EF900895CF93DF93EC0180
:1004C000888D8823C9F0EA89FB89808185FD05C074
:1004D000A889B9898C9186FD0FC00FB607FCF5CFAE
:1004E000808185FFF2CFA889B9898C9185FFEDCFF6
:1004F000CE010E94F501E7CFDF91CF91089580E012
:1005000090E0892B29F00E94EB0181110C940000EE
:1005100008953FB7F8948091DE059091DF05A09192
:10052000E005B091E10526B5A89B05C02F3F19F065
:100530000196A11DB11D3FBFBA2FA92F982F882763
:10054000820F911DA11DB11DBC01CD0142E0660FBE
:10055000771F881F991F4A95D1F70895E091D60516
:10056000F091D7059F012F5F3F4F3093D705209320
:10057000D60580830895EF92FF920F931F93CF9338
:10058000DF931F92CDB7DEB7062F142F59830E9439
:10059000AE02802F0E94AE02E12E5981F52E100F7F
:1005A0001E1531F0F70181917F010E94AE02F8CF54
:1005B0000F90DF91CF911F910F91FF90EF900895D1
:1005C000CF93DF93EC01FB018A30910548F06AE09C
:1005D00070E00E943618CB01BF010E94E002FC01CE
:1005E000CE016AE070E00E943618805D808311823F
:1005F000CF010196DF91CF91089585ED8093BC00E6
:100600008091BC0084FDFCCF10924F020895409170
:10061000B105262F30E0240F311D21323105DCF4E5
:1006200020914F022430C9F4FC0180E090E086174D
:1006300058F43091B1052191DC01A157BA4FA30FB5
:10064000B11D2C930196F3CF8091B105680F609393
:10065000B10580E0089581E0089582E0089508954D
:10066000E091730280917402E81730F4F0E0E75FE4
:10067000FD4F808190E008958FEF9FEF0895909156
:10068000730280917402981750F4E92FF0E0E75F4D
:10069000FD4F208130E09F5F9093730202C02FEFE7
:1006A0003FEFC90108958091740290E02091730298
:1006B000821B91090895CF92DF92EF92FF920F93E0
:1006C0001F93CF93DF937C01262F972F8A01809170
:1006D0005002882391F0C62FD72F6E01C40ED51E6D
:1006E000CC15DD0571F06991D701ED91FC91019078
:1006F000F081E02DC7010995F3CF642F822F0E946E
:100700000703C801DF91CF911F910F91FF90EF90E8
:10071000DF90CF900895CF93DF931F92CDB7DEB7D0
:100720006983209150022223D1F02091720220325D
:1007300040F021E030E0FC013383228380E090E050
:1007400015C080915102E82FF0E0EE5AFD4F9981DB
:1007500090838F5F809351028093720205C061E0A5
:10076000CE0101960E94070381E090E00F90DF9197
:10077000CF910895DC011696ED91FC9117979F019A
:100780002F5F3F4F17963C932E931697608381E01F
:1007900090E00895089580E090E008950E948C18FC
:1007A0006115710579F0FB0101900020E9F731979F
:1007B000AF01461B570BDC01ED91FC910280F381E8
:1007C000E02D099480E090E008951F920F920FB6FB
:1007D0000F9211242F933F934F935F936F937F93C7
:1007E0008F939F93AF93BF93EF93FF938AEE95E020
:1007F0000E94F501FF91EF91BF91AF919F918F9171
:100800007F916F915F914F913F912F910F900FBE0C
:100810000F901F9018951F920F920FB60F921124F0
:100820002F938F939F93EF93FF93E091FA05F091AD
:10083000FB058081E0910006F091010682FD12C067
:100840009081809103068F5F8F7320910406821739
:1008500051F0E0910306F0E0E651FA4F958F809356
:10086000030601C08081FF91EF919F918F912F919D
:100870000F900FBE0F901F90189590E0FC01E4566A
:10088000FD4F3491FC01E857FD4F2491FC01EC58D9
:10089000FD4FE491EE2309F43BC0332339F13330AB
:1008A00091F038F43130A9F0323001F584B58F7D04
:1008B00012C0373091F03830A1F03430B9F4809163
:1008C00080008F7D03C0809180008F7780938000AF
:1008D0000DC084B58F7784BD09C08091B0008F773B
:1008E00003C08091B0008F7D8093B000F0E0EE0FE8
:1008F000FF1FE659FD4FA591B4918FB7F894EC9185
:10090000611103C020952E2301C02E2B2C938FBF85
:100910000895CF93DF9390E0FC01E857FD4F2491B9
:10092000FC01EC58FD4F8491882361F190E0880F21
:10093000991FFC01E05AFD4FC591D491FC01E65985
:10094000FD4FA591B491611109C09FB7F8948881BA
:10095000209582238883EC912E230BC0623061F4B2
:100960009FB7F8943881822F809583238883EC91F8
:100970002E2B2C939FBF06C08FB7F894E8812E2BA7
:1009800028838FBFDF91CF9108958F929F92AF926E
:10099000BF92CF92DF92EF92FF926B017C010E9497
:1009A00089024B015C01C114D104E104F104F1F0AE
:1009B0000E948902DC01CB0188199909AA09BB09A7
:1009C000883E9340A105B10570F321E0C21AD10819
:1009D000E108F10888EE880E83E0981EA11CB11C86
:1009E000C114D104E104F10419F7DDCFFF90EF90B9
:1009F000DF90CF90BF90AF909F908F9008952FB7CA
:100A0000F8946091DA057091DB058091DC05909196
:100A1000DD052FBF08951F920F920FB60F9211247C
:100A20002F933F938F939F93AF93BF938091DA055A
:100A30009091DB05A091DC05B091DD053091D905E1
:100A400023E0230F2D3720F40196A11DB11D05C011
:100A500026E8230F0296A11DB11D2093D90580938E
:100A6000DA059093DB05A093DC05B093DD0580915A
:100A7000DE059091DF05A091E005B091E1050196BA
:100A8000A11DB11D8093DE059093DF05A093E005C5
:100A9000B093E105BF91AF919F918F913F912F91BD
:100AA0000F900FBE0F901F901895DC0196E0FB0190
:100AB00001900D929A95E1F70895FB0140815181D3
:100AC00062817381FC014083518362837383089543
:100AD000CF93DF93EB0144E050E0BC0180EB92E068
:100AE0000E949118892B39F46AEA72E0CE010E94C3
:100AF000550581E001C080E0DF91CF91089580919C
:100B0000A40290E0982F88272091A502822B449779
:100B10002091C20230E044E0359527954A95E1F7EF
:100B2000220F331F220F331F821B930B97FF02C02C
:100B300080E090E008952091B8023091B6023093A1
:100B4000B8022093B6022091B9023091B7023093D7
:100B5000B9022093B7022EEB32E0A2ECB2E0F90129
:100B60004291840F911D4E918C93662311F0408326
:100B700001C01082892F992744E04E0F4213F0CF15
:100B80001092C6021092C70280E58093C2020895B7
:100B9000BC0184E992E00E9455056EE772E08AE9A3
:100BA00092E00C945505CF93DF9300D0CDB7DEB71C
:100BB00069837A830E94C80569817A8182EB92E019
:100BC0000E945D0566EE75E08EEA92E00F900F9050
:100BD000DF91CF910C945D050F931F93CF93DF931B
:100BE00070E06C567D4F213021F48A01075F1F4F62
:100BF0000CC0223039F000E010E09801DB011196C2
:100C0000EA0106C08A010250110920E030E0F6CF67
:100C1000C230D10578F0FD013197E081F0E0FE2F80
:100C2000EE279C91E92B0E0F1F1F211D311D2297CE
:100C30001296EECFFA01EE7FE60FF71F40FF0CC0D1
:100C4000408150E060E070E0762F652F542F4427FC
:100C5000040F151F261F371FA90166277727411587
:100C600051056105710519F022273327F1CF009551
:100C70001095E82FF0E0EC56FD4F10830183DF91D3
:100C8000CF911F910F910895E4E9F2E0108E118E3B
:100C900080E4848B158A868B20E044E150E06EE08E
:100CA00088E10C94EC058AE992E00E94C8056EEA9E
:100CB00072E082EB92E00E945D0566EE75E08EEADE
:100CC00092E00E945D050C9444068EBD0DB407FEB3
:100CD000FDCF089561E0809108020E943D04789460
:100CE0000895F89460E0809108020C943D040F93FD
:100CF0001F93CF93DF93EC018B010E947106209725
:100D0000B9F08AE30E9465061EBCF801CE01019786
:100D100039F00DB407FEFDCF2EB51EBC2193F7CFE1
:100D20002197C00FD11F0DB407FEFDCF8EB588836C
:100D3000DF91CF911F910F910C946A06CF93DF93AF
:100D400000D01F92CDB7DEB74B836A8389830E94A0
:100D500071066A816F718981862B0E9465064B81BD
:100D6000842F0E9465060F900F900F90DF91CF9116
:100D70000C946A061F93CF93DF93182F1076C12F20
:100D8000D0E02091D80530E0C217D307A1F043E0AE
:100D90006FE180EA0E949E061093D805AE0185E0BF
:100DA000559547958A95E1F76FE180E8DF91CF91FE
:100DB0001F910C949E06DF91CF911F9108951F9370
:100DC000CF93DF931F92CDB7DEB7182F69830E94B0
:100DD000BA064981612F80E40F90DF91CF911F9176
:100DE0000C949E061F93CF93DF931F92CDB7DEB76F
:100DF000182F79830E94DF067981672F81E0810FA8
:100E00000F90DF91CF911F910C94DF061F93CF932A
:100E1000DF931F92CDB7DEB7182F0E94BA060E944B
:100E20007106812F8F710E94650680E00E94650621
:100E300017FF03C080E00E9465068EB589830E947B
:100E40006A0689810F90DF91CF911F910895CF930A
:100E5000DF93EC0140E86FE180E80E949E0640E8E5
:100E60006FE180EA0E949E064AE06CE180EA0E94FF
:100E70009E0660E07CE082E00E94F206BE01745FA4
:100E800086E00E94F20640E060E08AE70E949E064B
:100E90000E947106209751F40E946A0648E06FE1B3
:100EA00080E80E949E06C0E0D0E01CC08AE70E9455
:100EB0006506809194028EBDE5E9F2E0CC56DD4FE7
:100EC000EC17FD0731F081910DB407FEFDCF8EBD0B
:100ED000F7CF0DB407FEFDCFDFCF2196C83E83E0EC
:100EE000D80729F08CE10E9406078A70B1F38CE1E3
:100EF0000E94060781FD03C0C83ED34039F448E094
:100F00006FE180EADF91CF910C949E06DF91CF9143
:100F100008950F931F93CF938C018DE291E00E946F
:100F2000C805E4E9F2E088E08487C6E0C58748E0C8
:100F300050E068E572E082EA92E00E945514E4EB2A
:100F4000F2E0DF011D92CA95E9F76EE772E08AEAE6
:100F500092E00E945505B8018AEB92E00E945D057F
:100F600066EE75E080EB92E00E945D058AE290E01B
:100F7000CF911F910F910C9427070F931F93CF933D
:100F8000DF938C018896C4E9D2E0988B898B0E940C
:100F900044061AAA1BAAA801445E5F4F22E06AE138
:100FA00082E30E94EC05C801C696DF91CF911F91A4
:100FB0000F910C942707262F20612093C3026430E1
:100FC00021F0009711F481E090E061E00E949B0520
:100FD0001092A40288E28093A5020E94530684E046
:100FE0008093C4021092C50222E04CE150E06AE115
:100FF00082E30E94EC0586E390E00C942707CF92F1
:10100000DF92EF92FF920F931F938634910568F160
:101010002091B702233449F5C090C202D090C30298
:10102000E090C402F090C5020091790210917A021A
:1010300020917B0230917C02C016D106E206F306B5
:10104000A1F4EEEAF3E08C569D4F9F012E5F3F4FD7
:1010500041815081553319F45281561741F0F901FD
:10106000E40FF11DE817F90780F380E001C081E08B
:101070001F910F91FF90EF90DF90CF900895FF9216
:101080000F931F93CF93DF938C0186E191E0E4E906
:10109000F2E0DF019C011D9221503040E1F7809188
:1010A0007D02833019F0CDE2D1E002C0C5E7D2E085
:1010B000CE010E94990BBE01882319F088E892E0C6
:1010C00002C08EE892E00E94D3058881807F803E36
:1010D00091F088819981AA81BB818F3F9F4FAF4F4B
:1010E000BF4F49F044E050E0BE0184E892E00E9426
:1010F0009118892B31F46DE271E084E992E00E944D
:10110000550588E08093A0021092A10249E050E0CA
:1011100062E671E082EA92E00E9455141092A40205
:1011200081E18093AB021092B80283E48093B9020C
:101130001092B60284E48093B7021092BA02109221
:10114000BC021092BD026DE271E084E992E00E945F
:10115000550581E08093BE028093BF0286E08093B4
:10116000C0028091790290917A02A0917B02B091A5
:101170007C028093C2029093C302A093C402B093F6
:10118000C50280917D02833031F466EE75E08AEC11
:1011900092E00E945D056EE772E08AED92E00E94A7
:1011A00055058AEA93E09093D7058093D605C4E568
:1011B000D2E0FC2E84E0F80EFE0184910E94AE0283
:1011C0002196FC12F9CF85E30E94AE0281E00E94D5
:1011D000AE0280917D02882311F083E001C081E09E
:1011E0000E94AE028DE30E94AE0287E00E94AE0232
:1011F00081E00E94AE02CEE7D2E0FC2E26E0F20EA5
:10120000FC1621F089910E94AE02FACF80910C0168
:10121000882371F0ECE0F1E001900020E9F73197CC
:10122000BF016C5071404CE051E08CE00E94BB0269
:101230000115110559F0A80164E082E30E94BB0288
:1012400045E752E064E086E30E94BB0287E30E9428
:10125000AE0283E00E94AE0281E00E94AE0283E013
:101260000E94AE0286E00E94AE028FEF0E94AE02A4
:10127000C091D605D091D705CE5BD240CE014C9619
:101280009093A4028093A5020E944406CE01089682
:101290009093BA028093BB02AE01405F5F4F21E0A2
:1012A0006AE188E20E94EC05CE018A96DF91CF9137
:1012B0001F910F91FF900C942707AF92BF92CF928E
:1012C000DF92EF92FF920F931F93CF93DF93CDB7EF
:1012D000DEB7ED84FE84CF84D8888E010F5E1F4F69
:1012E000C6010196F6012491222309F4D6C02432C6
:1012F00079F0D7011696ED91FC911797AF014F5FEA
:101300005F4F17965C934E93169720836C01E8CF3E
:10131000B2E0CB0ED11CFC019491963409F46FC05D
:101320005CF49434C1F0953409F099C0F8018081DF
:1013300091810E5F1F4F7BC0D70116964D915C9136
:1013400017979C3409F443C0933509F44DC0983481
:1013500009F085C00DC05801B2E0AB0EB11CF70119
:1013600066817781D8018D919C910E94E00285C0B1
:10137000B8016E5F7F4FF8019081292F092E000C74
:10138000330B84E0359527958A95E1F72F709F7090
:101390009A300CF0995F905D2A300CF0295FFA01C9
:1013A0003196D7011796FC93EE931697205DFA01BC
:1013B00020831696ED91FC9117979F012F5F3F4F69
:1013C00017963C932E93169790838B0189CF5801E3
:1013D000F4E0AF0EB11CD8016D917D918D919C917F
:1013E0002AE00E945E1449C05801B2E0AB0EB11C65
:1013F000F80160817181CA010E949E183EC0F80107
:101400000190F081E02D0E5F1F4F8491AF014F5F7F
:101410005F4F882309F464CFF701A681B7819D014E
:101420002F5F3F4F378326838C93FA01EECF5C0109
:10143000BFEFAB1ABB0A0E940517882309F450CFEF
:10144000D7011696ED91FC9117979F012F5F3F4FA3
:1014500017963C932E9316978083C501E8CFD7014A
:101460001696ED91FC9117979F012F5F3F4F1796AE
:101470003C932E931697908333CFD7011696ED9118
:10148000FC91179701900020E9F7CF01019717967B
:101490009C938E931697850123CFDF91CF911F9157
:1014A0000F91FF90EF90DF90CF90BF90AF90089595
:1014B0001F920F920FB60F9211242F933F934F93C9
:1014C0005F936F937F938F939F93AF93BF93EF93AC
:1014D000FF938091B900887F803609F49CC068F53D
:1014E000883209F45BC090F4803109F454C038F4B8
:1014F000882309F4F6C0883009F44DC0F6C088315D
:1015000009F44CC0803209F45DC0EFC0803409F4A6
:1015100068C048F4803309F455C0883309F0E5C049
:1015200080934D02D8C0803509F44FC0883509F446
:101530005DC0883409F0D9C0D6C0883909F4C7C065
:10154000A8F4883709F467C038F4883609F463C012
:10155000803709F460C0C9C0883809F4B8C0803940
:1015600009F45FC0803809F0C0C05BC0803B09F45B
:1015700086C038F4803A09F466C0883A09F47FC01E
:10158000B4C0803C09F4A7C0883C09F4A4C0883BDF
:1015900009F48AC0AAC080912A0210C090914C021E
:1015A00080914B02981770F5E0914C0281E08E0F0C
:1015B00080934C02F0E0E55DFD4F80818093BB009D
:1015C00085EC86C080934D028EC0E0914C0281E094
:1015D0008E0F80934C028091BB00F0E0E55DFD4FE3
:1015E000808390914C0280914B026EC0E0914C023E
:1015F00081E08E0F80934C028091BB00F0E0E55DAE
:10160000FD4F808380914E0281116DC081E08093F7
:10161000290284EA61C083E080934F021092D505CD
:10162000CFCF8091D505803208F051C0E091D5052B
:1016300081E08E0F8093D5058091BB00F0E0EB54E4
:10164000FA4F8083BDCF85EC8093BC0010924F028F
:101650008091D505803230F4E091D505F0E0EB546F
:10166000FA4F10826091D50570E0E091B305F091DA
:10167000B40585EB95E009951092D50536C084E058
:1016800080934F021092B2051092B105E091AF0520
:10169000F091B00509958091B105811105C081E0F7
:1016A0008093B10510928F05E091B20581E08E0F15
:1016B0008093B205F0E0E157FA4F80818093BB0040
:1016C0009091B2058091B105981708F479CF85E81B
:1016D0008093BC000AC085EC8093BC0010924F023E
:1016E00004C010924D020E94FD02FF91EF91BF9144
:1016F000AF919F918F917F916F915F914F913F91AA
:101700002F910F900FBE0F901F901895CF93DF93DE
:10171000BC018AEE95E00E94D003EC0163EC71E01D
:101720008AEE95E00E94D0038C0F9D1FDF91CF9130
:101730000895CF93DF932091E6052223A1F0FC01C9
:101740002081222381F0A6EEB5E0C2EED5E08D9196
:10175000219199918227892331F485E0AA3EB80727
:10176000B1F781E001C080E0DF91CF910895CF9380
:10177000DF93CDB7DEB7E2970FB6F894DEBF0FBEAA
:10178000CDBF789484B5826084BD84B5816084BD0A
:1017900085B5826085BD85B5816085BD80916E000F
:1017A000816080936E001092810080918100826040
:1017B000809381008091810081608093810080917D
:1017C00080008160809380008091B100846080936C
:1017D000B1008091B00081608093B00080917A0068
:1017E000846080937A0080917A00826080937A008E
:1017F00080917A00816080937A0080917A0080687D
:1018000080937A001092C1001092730210927402B9
:10181000109251021092720210924F0281E0809356
:101820004E021092290261E082E10E943D0461E0D3
:1018300083E10E943D048091B9008E7F8093B900BE
:101840008091B9008D7F8093B90088E48093B800BF
:1018500085E48093BC00E091FA05F091FB0582E0FD
:101860008083E091F605F091F7051082E091F8058C
:10187000F091F90580E1808310920206E091FE0567
:10188000F091FF0586E08083E091FC05F091FD0575
:10189000808180618083E091FC05F091FD0580816D
:1018A00088608083E091FC05F091FD05808180686F
:1018B0008083E091FC05F091FD0580818F7D808320
:1018C0001092840587E390E001E010E020E030E032
:1018D0000097D1F0FC0143E0F595E7954A95E1F7D3
:1018E000E05BFA4F482F47706801790104C0CC0CC7
:1018F000DD1CEE1CFF1C4A95D2F7B701A601A081A2
:101900004A2B40830197E4CF64E071E08EE792E0D8
:101910000E9455058CEB92E09093590580935805F1
:101920000CB406FC25C061E08AE00E94890461E0F5
:101930008AE00E943D0461E08BE00E94890461E03E
:101940008DE00E94890460E08CE00E94890461E0DF
:101950008BE00E943D0460E08BE00E943D0460E06B
:101960008DE00E943D0480E58CBD8DB581608DBD0C
:101970008AE08093080261E00E9489040E946A065E
:101980004FEF60E08FEF0E949E0662E070E080E023
:1019900090E00E94C5040E9471068DE10E946506D8
:1019A00080E00E9465061EB50E946A06112399F325
:1019B00060E070E088E00E94F20660E070E08CE099
:1019C0000E94F2066FEF7BE08AE00E94F20660E080
:1019D0007CE084E00E94F2066FEF71E186E00E94F5
:1019E000F20661EB88E30E94DF066FE370E388E2B2
:1019F0000E94F20669EF77EF80E30E94F2066DE045
:101A000080EC0E94DF0660E081EC0E94DF0642E38A
:101A100062EC80E80E949E0662E17CE086EC0E9417
:101A2000F20662E184EC0E94DF066CED75E08AEC60
:101A30000E94F20660917E0284EE0E94DF066091B1
:101A40007F0285EE0E94DF066091800282EE0E9496
:101A5000DF066091810283EE0E94DF0660918202C0
:101A600080EE0E94DF066091830281EE0E94DF0615
:101A700060E184ED0E94DF0660E071E086ED0E9487
:101A8000F2068AEE0E94060780FDFBCF8FE10E94DE
:101A9000BA0640EC6BE180E80E949E0644E06FE1EC
:101AA00080E80E949E0682E70E940607863008F0C2
:101AB0008F5F811103C08FE691E002C081EA91E05F
:101AC0000E94860B1092840560E071E086EE95E03E
:101AD0000E945D0586EEE82E85E0F82E22EE35E0C8
:101AE00064E872E0F70144E04E0D9191D9018D91C7
:101AF0009D018095892BDB018D93BD014E13F5CFA0
:101B0000109282051092810563EC71E08AEE95E0F7
:101B10000E94D00364E670E080E090E00E94C5047B
:101B200086EC91E00E94860B6BEC71E08AEE95E00A
:101B30000E94D00310E00AE0802E912CA12CB12C41
:101B4000F70121917F0130E040E050E019A2CE0181
:101B500081966C01CA01B901A50194010E944A183D
:101B6000605DD6016E936D0121153105410551056A
:101B700089F7BD018AEE95E00E94D003133059F039
:101B8000E091EA05F091EB050190F081E02D6EE225
:101B90008AEE95E009951F5F143091F663EC71E0D1
:101BA0008AEE95E00E94D003C0906C05D0906D0540
:101BB000E0906A05F0906B05F9AAE8AA3324339403
:101BC00080914F028111FCCF30924F0230924E0231
:101BD000FF24FA94F0924D0210924C0225E02093DB
:101BE0004B0230922A0280912A02886B80932A024B
:101BF00080912902813071F41092290280912A0289
:101C00008093BB008091BC0083FDF8CF35EC30930E
:101C1000BC0003C085EE8093BC0080914F028130F0
:101C2000E1F380914C02863018F480914C0201C09F
:101C300086E0E9E0F2E0ABE2B2E09E2F19E0E12EAF
:101C400012E0F12E9E19981718F49D919193F5CFFB
:101C50001092730280937402E82EF12C309250029D
:101C60002CE520935705109251021092720263E006
:101C700087E896E00E948B0360E087E896E00E9488
:101C80008B0364E087E896E00E948B0380917202E8
:101C9000813208F047C090914F029111FCCF92E041
:101CA00090934F0230924E023FEF30934D021092CC
:101CB0004C0280934B02A2E5B2E0EBE2F2E09E2FF1
:101CC0002BE232E0921B981718F49D919193F7CF75
:101CD00010922A0280912A02886B80932A028091B6
:101CE0002902813071F41092290280912A02809396
:101CF000BB008091BC0083FDF8CF35EC3093BC0075
:101D000003C085EE8093BC0080914F028230E1F3E6
:101D100080914D028F3F31F080914D02803211F061
:101D200080914D0210925102109272021092500254
:101D300064E670E080E090E00E94C504212C812CD4
:101D4000912CB12C00E010E090917402809173020C
:101D5000981731F144244394512CE414F504A4F36E
:101D600087E896E00E943F03A4E04A16510489F0F8
:101D700034F4E3E04E16510479F4B82E0DC0F5E0CA
:101D80004F16510441F026E04216510429F48C010B
:101D900003C04C0101C0282E3FEF431A530ADDCF88
:101DA000BFA61EA66EA57FA5680D791D072E000C87
:101DB000880B990B0E94861720E030E040E251E446
:101DC0000E9412174B015C01609387057093880590
:101DD0008093890590938A05722C612CB301600F62
:101DE000711F072E000C880B990B0E94861720E0AC
:101DF00030E040E251E40E94121760938B0570932B
:101E00008C0580938D0590938E0520E030E0A9012C
:101E1000C501B4010E940D17882309F4D1CE809129
:101E20005C05882389F060915A0570915B05611506
:101E3000710519F46FEF7BE002C0615071098CE00D
:101E40000E94F20610925C0589E30E94060788232F
:101E5000C9F160915A0570915B0580E00E94F2061D
:101E6000BE016F5F7F4F86E090E00E947706898118
:101E70009A8190935B0580935A050B811C81809118
:101E80005805909159052D8127FF0DC001970450E9
:101E900011098017910708F48C0164E972E0C80108
:101EA0000E94770602C000E010E0F801EC56FD4FFA
:101EB000108281E080935C0540E46EE180E80E943E
:101EC0009E0602C000E010E080918405882309F49A
:101ED0003EC180917D02823009F488C030F48823AD
:101EE00081F1813009F44DC032C1833021F084305A
:101EF00009F47CC02CC18090660590906705A09085
:101F00006805B09069058FEF88169806A806B80690
:101F100009F41DC10E94FF04209162053091630500
:101F20004091640550916505DC01CB01821B930B48
:101F3000A40BB50B88159905AA05BB0508F018C2B6
:101F400006C10E94FF046093790270937A02809325
:101F50007B0290937C021092E6051092E7051092A6
:101F6000E8051092E90580E090E00E943F0888E3D0
:101F70000E940607682F616088E30E94DF0681E007
:101F800028C062E0C8010E94FF078823A9F16EEC17
:101F900072E0CE0101960E945D05EEEAF3E0C80111
:101FA0008C569D4FBF016E5F7F4F2181308136334C
:101FB00029F485E792E00E945D0506C0FB01E20F6F
:101FC000F11DE817F90770F3CE0101960E943F0852
:101FD00082E080937D020E94FF0460935E0570930F
:101FE0005F058093600590936105B1C065E0C8010D
:101FF0000E94FF07811119C00E94FF0480905E05B6
:1020000090905F05A0906005B0906105DC01CB0168
:1020100088199909AA09BB0981319742A105B1051F
:1020200008F495C010927D0292C080915D058111E7
:1020300008C088E30E940607682F6E7F88E30E942D
:10204000DF066EEC72E086EE95E00E945D05EEEA3A
:10205000F3E098012C563D4F49017F0132E0E30E39
:10206000F11C518080818630A9F048F4813071F0F4
:10207000833009F045C0B7018DE795E00EC08A3383
:1020800079F08F3FD9F18333D9F50AC0B70182EED9
:1020900095E003C0B70188E795E00E945D0530C078
:1020A000D701369620E030E0A9018D91742F632F7F
:1020B000522F44279A01AB01280F311D411D511D9C
:1020C000AE17BF0791F720936605309367054093DD
:1020D0006805509369052F3F8FEF38074807580769
:1020E00079F0A8EEB3E00E946C18609366057093D7
:1020F0006705809368059093690502C081E001C07F
:1021000080E0F701E50DF11D811104C0E815F90526
:1021100008F4A3CF0E94FF046093620570936305E7
:10212000809364059093650580917D05882361F017
:10213000109282051092810581E0809383056DE7FE
:1021400075E0CB010E945D0583E080937D0201155F
:10215000110509F0BDC0809183058570E1F0809183
:10216000810590918205892BB1F461E184ED0E9493
:10217000DF0661E082ED0E94DF068AEE0E9406071C
:1021800080FDFBCF60E082ED0E94DF0689ED0E94BA
:10219000060782FDF3C0809181059091820501962A
:1021A000909382058093810580917C05813009F0B0
:1021B00070C08091830581FF6CC082E080937C05B4
:1021C00080910B018F5F80930B01182F1F7182E7A5
:1021D00095E00E94990B62E775E0882319F088E882
:1021E00092E002C08EE892E00E94D30508E00093DE
:1021F000A0021092A10249E050E062E671E082EA9A
:1022000092E00E9455148CE28093A50286E08093B0
:10221000AB020E9444061092B8021092B9028BE001
:102220008093B6021093B702EAEBF2E0DF011D9251
:102230000A95E9F780910A018093BC028D5F809333
:102240000A0180E68093C20282E08093C30293E099
:102250009093C4021092C5021092C6021092C70257
:102260001092C8021092C9028093CA0294E090931F
:10227000CB028093CC0286E28093CD0222E040E242
:1022800050E06AE182E30E94EC058AE390E00E945C
:10229000270788E795E00E94990B882349F08091F1
:1022A0007705811105C080917605882309F470C0F7
:1022B00082E795E00E94990B882309F456C080912B
:1022C0007105811152C08091700581114EC068C0A6
:1022D0000932110508F449C08091A002883009F044
:1022E00044C08091A102863009F099C044E050E0DA
:1022F00066EE75E08AEB92E00E949118892BA9F5B1
:102300008091A902813029F58AE992E00E94C805EE
:102310001092A80282E08093A9026AEA72E084EB3C
:1023200092E00E9455056EE772E08AEA92E00E9410
:10233000550560EB72E08AEB92E00E945D0566EE67
:1023400075E080EB92E00E945D058AE290E00E94D9
:1023500027078091830583FD2BC080917705882313
:10236000A1F1809171058823E9F10E947F0226CCBA
:1023700086EE95E00E943F0884E02BCE8DE795E045
:102380000E9489078091830588608093830503CF2D
:1023900088E795E00E94890781E08093760588CFE1
:1023A00082E795E00E94890781E080937005DDCF88
:1023B0001091A902123089F66EE872E08DE795E07F
:1023C0000E946805811122C0C8CF809176058823BC
:1023D00041F268E872E088E795E00E9468058111A3
:1023E00018C0BFCF80917005882309F4BECF68E87C
:1023F00072E082E795E00E946805882309F4B5CF72
:1024000081E08093710510927005AFCF1093830522
:10241000A4CF81E08093770510927605A2CF093290
:10242000110509F4A2CF8111A0CF8091A2028534B9
:1024300009F09BCF44E050E066EE75E082EB92E05D
:102440000E949118892BA9F044E050E064E872E002
:1024500082EB92E00E949118892B59F044E050E001
:102460006DE271E082EB92E00E949118892B09F0F5
:102470007CCF8091AB02813001F58091B60288302B
:1024800009F073CFE0916E05F0916F05309719F068
:102490008EEA92E009950E9453061092B60280914E
:1024A000B802883F28F09091B9029F5F9093B902DB
:1024B000885F8093B802C801F3C00633110508F4A1
:1024C00054CF863009F051CF8091B8028B3009F09B
:1024D000A4C044E050E062E775E08EEA92E00E941A
:1024E0009118892B09F041CF2091C30222FF13C01C
:1024F000E0916C05F0916D05309759F08091B9022B
:1025000020E030E040E050E063E0829586958770FF
:10251000099585E06AC02AAB0E947F057C01809105
:102520007C052AA9823069F5322F3071227122315F
:10253000E9F460E080E090E00E94DB0788E18093AE
:10254000C302E8A8F9A8E114F10441F08091B702B0
:10255000829586958770F701099502C080E090E02A
:1025600023E020937C050E94BD07FFCE81E080938D
:102570007C05C7010196332311F080E090E064E010
:1025800049C08330A9F5E114F104A9F1C114D104C3
:1025900091F18091C20290E044E0959587954A952B
:1025A000E1F7880F991F880F991F8296A80148505C
:1025B00051098417950708F4AC01C701840F951FD2
:1025C0000817190720F49801241B350B01C0970147
:1025D0008091B90260E0829586958770F601099531
:1025E00069E0C7010E94DB0786E080937C05BDCED1
:1025F000853009F4BACE20FF07C0833009F4B5CE88
:1026000069E0C7010196EECFE114F10409F4ADCE03
:1026100060E0C7010E94DB07A8CE8111A6CE8091A1
:10262000B902803509F0A1CEF090C302F1FE3BC0A3
:102630001092A4028CE28093A5020E94530682E1CC
:102640008093C30260E081E090E00E949B051092BD
:10265000BA021092BB0280910A018093BC021092D0
:10266000BD028D5F80930A0182E08093CA0284E0FC
:102670008093CB0285E08093CC021092CD0290E64D
:102680009093C2028093C40288E78093C50222E03F
:1026900040E250E06AE182E30E94EC058AE390E0C8
:1026A0000E94270762CEF4FE60CE0E947F059093C1
:1026B000860580938505892B09F498C08091C20214
:1026C00090E024E0959587952A95E1F7880F991F6A
:1026D000880F991F82960817190708F446CE809034
:1026E0008B0590908C05A0908D05B0908E05209064
:1026F0008705309088054090890550908A0563EDE4
:1027000071E08AEE95E00E94D0037E01F8E2EF0EC0
:10271000F11C870122E043E0C501B4010E94351499
:102720004E0122E2820E911C840122E043E0C201AC
:10273000B1010E94351465EE71E08AEE95E00E94C9
:10274000D003B7018AEE95E00E94D00364EF71E0F8
:102750008AEE95E00E94D003B4018AEE95E00E94D3
:10276000D00384E092E00E94860B1C821B8287E3E8
:1027700091E09A8389838AEC92E09E838D83988787
:102780008F8385E192E09F938F93015211091F93EC
:102790000F930E945D099F928F92FF92EF928BE6BA
:1027A00091E09F938F931F930F930E945D090F8178
:1027B00018858D819E81081B190B60E0809185052D
:1027C000909186050E94DB0789E18093C302C801CE
:1027D0000E94BD0764E670E080E090E00E94C504BE
:1027E0000FB6F894DEBF0FBECDBFBFCDF0FEBDCD9E
:1027F00060E080E090E00ECFEAEEF5E01382128216
:1028000088EE93E0A0E0B0E084839583A683B7834D
:1028100023E431E03183208325EC30E035872487C1
:1028200024EC30E03787268720EC30E0318B208B9A
:1028300021EC30E0338B228B22EC30E0358B248B83
:1028400026EC30E0378B268B118E128E138E148E71
:10285000E7E8F6E01382128284839583A683B78328
:1028600085E591E0918380830895EF920F931F9304
:10287000CF93DF93E80147FD02C034E001C034E1AB
:10288000E42F440FFF0BF7FF03C0F195E195F10929
:10289000E32E022F2E2FAE010E948F14CE01DF9166
:1028A000CF911F910F91EF900895FB01DC0102C0C1
:1028B00005900D9241505040D8F70895BB272A301B
:1028C00051F4992342F4BDE29095809570956195FD
:1028D0007F4F8F4F9F4F0C946E14BB27FA01A62F8A
:1028E0006217710581059105330B30FB66F0AA274D
:1028F000660F771F881F991FAA1FA21710F0A21B2F
:1029000063953850A9F7A05DAA3308F0A95DA1939B
:1029100036F7B111B1931082CA010C94F5164F929B
:102920005F926F927F929F92AF92BF92CF92DF920F
:10293000EF92FF920F931F93CF93DF93CDB7DEB744
:1029400029970FB6F894DEBF0FBECDBF6A01122FD4
:10295000B02E2BE3201720F0FF24F394F00E02C0DA
:10296000BCE3FB2E0F2D27E0AE014F5F5F4F0E94AF
:102970001D16AC018981982F9970913031F0E1FCDE
:1029800006C0E0FE06C090E205C09DE203C09BE2E7
:1029900001C090E0EE2DE07183FF3CC0911102C0B8
:1029A00083E001C084E0811718F4212F281B01C0A7
:1029B00020E0E1110BC0F601822F30E2882319F0EC
:1029C00031938150FBCFC20ED11C20E0992329F016
:1029D000D6019C93F60131966F01C6010396E2FE83
:1029E0000AC03EE4D6013C9341E411964C93119702
:1029F00012963C9306C03EE6F601308341E64183E1
:102A00003283FC01322F40E2332309F442C0419368
:102A10003150FACF82FF44C0911102C083E001C05F
:102A200084E0811718F4212F281B01C020E0E11158
:102A30000BC0F601822F30E2882319F031938150C8
:102A4000FBCFC20ED11C20E0992329F0D6019C9324
:102A5000F60131966F01C6010396E2FE0BC039E420
:102A6000D6013C933EE411963C93119736E41296BE
:102A70003C9307C039E6F60130833EE6318336E603
:102A80003283FC01322F40E2332319F0419331505D
:102A9000FBCFFC01E20FF11D10828EEF9FEFB7C05C
:102AA000F1E0911101C0F0E06F2F70E014161506EF
:102AB00024F49A012F5F3F4F02C021E030E0260F3F
:102AC000371FBB2029F06B2D70E06F5F7F4F02C076
:102AD00060E070E0260F371F612F70E02617370780
:102AE0001CF4121B212F01C020E03E2D387159F437
:102AF000D601322F60E2332319F06D933150FBCFB2
:102B0000C20ED11C20E0FF2331F0D6019C93B60108
:102B10006F5F7F4F6B01E1110BC0F601922F30E325
:102B2000992319F031939150FBCFC20ED11C20E0B4
:102B30009F2D940F3A81782F7071A72E84FF03C0C8
:102B4000313309F49150191624F4993018F098E0B3
:102B500001C091E0E42F852F57FF02C0E0E080E044
:102B60006E2F782FE0E0F0E0AEE29A2E3A01691A7B
:102B700071082A01461A570A0B2D10E0119501958C
:102B800011096F3F8FEF780729F4D6019C92C60197
:102B900001966C014617570784F0661677066CF4A9
:102BA0007F01E40CF51CA1E0B0E0AC0FBD1FEA0E04
:102BB000FB1ED7011196BC9002C090E3B92E615064
:102BC00071093196C60101967C016017710724F0E6
:102BD000D601BC926C01D5CF6417750741F436332A
:102BE00020F4353321F4A11002C081E3B82EF601A0
:102BF000B082F701822F90E2882319F091938150DF
:102C0000FBCFF701E20FF11D108280E090E02996E2
:102C10000FB6F894DEBF0FBECDBFDF91CF911F91ED
:102C20000F91FF90EF90DF90CF90BF90AF909F906B
:102C30007F906F905F904F900895283008F027E0C4
:102C40003327DA01990F311D87FD916000966105E8
:102C5000710539F432602E5F3D9330E32A95E1F738
:102C600008959F3F30F080387105610509F03C5FA1
:102C70003C5F3D93913008F08068911DDF93CF93C6
:102C80001F930F93FF92EF92192F987F9695E92F3C
:102C900096959695E90FFF27EE53FF4F9927332717
:102CA000EE24FF24A701E70105900894079428F477
:102CB000360FE71EF81E491F511D660F771F881F2C
:102CC000991F0694A1F70590079428F4E70EF81EC3
:102CD000491F561FC11D770F881F991F661F069435
:102CE000A1F70590079428F4F80E491F561FC71F37
:102CF000D11D880F991F661F771F0694A1F70590B5
:102D0000079420F4490F561FC71FD81F990F661F3D
:102D1000771F881F0694A9F784911095177041F0CA
:102D2000D695C79557954795F794E7941A95C1F7A7
:102D3000E8E6F0E0689415901591359165919591CC
:102D400005907FE27395E118F10A430B560BC90B0E
:102D5000D009C0F7E10CF11E431F561FC91FD01D3B
:102D60007EF4703311F48A95E6CFE894015030F088
:102D7000080F0AF40027021708F4202F2395022FCA
:102D80007A3328F079E37D932A95E9F710C07D9393
:102D90002A9589F606949795679537951795179410
:102DA000E118F10A430B560BC90BD00998F0239593
:102DB0007E9173957A3308F070E37C932013B8F713
:102DC0007E9170617D9330F0839571E37D9370E324
:102DD0002A95E1F71124EF90FF900F911F91CF9169
:102DE000DF91992787FD90950895DC01FC01672FFD
:102DF00071917723E1F7329704C07C916D937083D2
:102E00006291AE17BF07C8F30895F999FECF92BD3E
:102E100081BDF89A992780B508950E94C11708F4DA
:102E200081E008950E9426170C94FC170E94F51764
:102E300058F00E94EE1740F029F45F3F29F00C94FF
:102E4000E51751110C9430180C94EB170E940D18D3
:102E500068F39923B1F3552391F3951B550BBB27C9
:102E6000AA2762177307840738F09F5F5F4F220F0E
:102E7000331F441FAA1FA9F335D00E2E3AF0E0E805
:102E800032D091505040E695001CCAF72BD0FE2F4F
:102E900029D0660F771F881FBB1F261737074807E3
:102EA000AB07B0E809F0BB0B802DBF01FF2793589B
:102EB0005F4F3AF09E3F510578F00C94E5170C9463
:102EC00030185F3FE4F3983ED4F386957795679585
:102ED000B795F7959F5FC9F7880F911D96958795D0
:102EE00097F90895E1E0660F771F881FBB1F6217EF
:102EF00073078407BA0720F0621B730B840BBA0BAD
:102F0000EE1F88F7E0950895E89409C097FB3EF41A
:102F100090958095709561957F4F8F4F9F4F992326
:102F2000A9F0F92F96E9BB279395F69587957795A4
:102F30006795B795F111F8CFFAF4BB0F11F460FF64
:102F40001BC06F5F7F4F8F4F9F4F16C0882311F0BC
:102F500096E911C0772321F09EE8872F762F05C0D0
:102F6000662371F096E8862F70E060E02AF09A956B
:102F7000660F771F881FDAF7880F9695879597F960
:102F80000895990F0008550FAA0BE0E8FEEF1616FA
:102F90001706E807F907C0F012161306E407F5074D
:102FA00098F0621B730B840B950B39F40A2661F0C1
:102FB000232B242B252B21F408950A2609F4A14064
:102FC000A6958FEF811D811D089597F99F6780E871
:102FD00070E060E008959FEF80EC089500240A946B
:102FE0001616170618060906089500240A941216E4
:102FF0001306140605060895092E0394000C11F417
:10300000882352F0BB0F40F4BF2B11F460FF04C0C3
:103010006F5F7F4F8F4F9F4F089557FD9058440F1C
:10302000551F59F05F3F71F04795880F97FB991F27
:1030300061F09F3F79F087950895121613061406E4
:10304000551FF2CF4695F1DF08C016161706180671
:10305000991FF1CF86957105610508940895E8944C
:10306000BB2766277727CB0197F90895AA1BBB1BBF
:1030700051E107C0AA1FBB1FA617B70710F0A61B78
:10308000B70B881F991F5A95A9F780959095BC0199
:10309000CD010895A1E21A2EAA1BBB1BFD010DC094
:1030A000AA1FBB1FEE1FFF1FA217B307E407F507F8
:1030B00020F0A21BB30BE40BF50B661F771F881FD4
:1030C000991F1A9469F760957095809590959B016A
:1030D000AC01BD01CF0108950E947D18A59F900D00
:1030E000B49F900DA49F800D911D11240895EE0FA3
:1030F000FF1F0590F491E02D0994A29FB001B39FAA
:10310000C001A39F700D811D1124911DB29F700DF0
:10311000811D1124911D089581E090E0F8940C9494
:10312000A518FB01DC0104C08D910190801921F4E8
:1031300041505040C8F7881B990B0895FB01DC01F2
:0E31400001900D920020E1F70895F894FFCF62
:10314E00C0A801B17469692D30310A0141726475EC
:10315E00696E6F2D454E4332386A36302D30300051
:10316E0000000000000000000000000000FFFFFF54
:10317E00FFFFFF00000000BA038301CB03CA030068
:10318E0000000016028301AE015D02DF01BD01D118
:10319E0001000000008B035B03CB032F0353033F9F
:1031AE0003300300000000CE038301CB03CA034E9D
:1031BE006F20736520686120706F6469646F206191
:1031CE006363656465722061206C6120636F6E7449
:1031DE00726F6C61646F722045746865726E65748F
:1031EE0000436F6E74726F6C61646F722045746809
:1031FE0065726E657420696E696369616C697A6166
:10320E00646F000D0A00646F6E65004D79204950A1
:10321E003A200020726573706F6E73652054656D71
:10322E0070203A200074656D7065726174757265F8
:10323E00203A20002743202068756D6964697479EF
:08324E00203A200025200000B9
:107800000C94343C0C94513C0C94513C0C94513CE1
:107810000C94513C0C94513C0C94513C0C94513CB4
:107820000C94513C0C94513C0C94513C0C94513CA4
:107830000C94513C0C94513C0C94513C0C94513C94
:107840000C94513C0C94513C0C94513C0C94513C84
:107850000C94513C0C94513C0C94513C0C94513C74
:107860000C94513C0C94513C11241FBECFEFD8E036
:10787000DEBFCDBF11E0A0E0B1E0ECE9FFE702C060
:1078800005900D92A230B107D9F712E0A2E0B1E065
:1078900001C01D92AD30B107E1F70E942D3D0C945F
:1078A000CC3F0C94003C982F959595959595959582
:1078B000905D8F708A307CF0282F295A8091C0000B
:1078C00085FFFCCF9093C6008091C00085FFFCCF60
:1078D0002093C6000895282F205DF0CF982F809127
:1078E000C00085FFFCCF9093C6000895EF92FF92F1
:1078F0000F931F93EE24FF2487018091C00087FD22
:1079000017C00894E11CF11C011D111D81E4E8164B
:1079100082E4F8068FE0080780E0180770F3E09132
:107920000401F091050109958091C00087FFE9CF1E
:107930008091C6001F910F91FF90EF9008950E94D3
:10794000763C982F8091C00085FFFCCF9093C600B5
:1079500091362CF490330CF09053892F089597555D
:10796000892F08951F930E949F3C182F0E949F3CCF
:107970001295107F810F1F9108951F93182F882350
:1079800021F00E94763C1150E1F71F9108951F935A
:10799000182F0E94763C803249F0809103018F5F5E
:1079A000809303018530C1F01F9108958091C0003C
:1079B00085FFFCCF84E18093C6008091C00085FFE5
:1079C000FCCF1093C6008091C00085FFFCCF80E102
:1079D0008093C6001F910895E0910401F091050184
:1079E00009951F9108950E94763C803241F0809164
:1079F00003018F5F80930301853081F008958091AA
:107A0000C00085FFFCCF84E18093C6008091C00058
:107A100085FFFCCF80E18093C6000895E0910401CA
:107A2000F09105010995089540E951E08823A1F0FE
:107A30002D9A28EE33E0FA013197F1F721503040CA
:107A4000D1F72D9828EE33E0FA013197F1F7215064
:107A50003040D1F7815061F708953F924F925F9285
:107A60006F927F928F929F92AF92BF92CF92DF924E
:107A7000EF92FF920F931F93CF93DF93000080E16B
:107A80008093C4001092C50088E18093C10086E015
:107A90008093C2005098589A259A81E00E94143D24
:107AA00024E1F22E9EE1E92E85E9D82E0FE0C02ECA
:107AB00010E1B12EAA24A394B1E49B2EA6E58A2E50
:107AC000F2E57F2EE0E26E2E79E4572E63E5462E36
:107AD00050E5352E0E94763C8033B1F18133B9F107
:107AE000803409F46FC0813409F476C0823409F41B
:107AF00085C0853409F488C0803531F1823521F1A3
:107B0000813511F1853509F485C0863509F48DC0BC
:107B1000843609F496C0843709F403C1853709F423
:107B200072C1863709F466C0809103018F5F80932C
:107B30000301853079F6E0910401F0910501099582
:107B40000E94763C803351F60E94F33CC3CF0E94E2
:107B5000763C803249F78091C00085FFFCCFF092DF
:107B6000C6008091C00085FFFCCF9092C600809136
:107B7000C00085FFFCCF8092C6008091C00085FFC9
:107B8000FCCF7092C6008091C00085FFFCCF609250
:107B9000C6008091C00085FFFCCF5092C600809146
:107BA000C00085FFFCCF4092C6008091C00085FFD9
:107BB000FCCF3092C6008091C00085FFFCCFB09210
:107BC000C60088CF0E94763C863808F4BDCF0E945C
:107BD000763C0E94F33C7ECF0E94763C803809F4CC
:107BE0009CC0813809F40BC1823809F43CC1883942
:107BF00009F48FC080E00E94C73C6CCF84E10E94F2
:107C0000BD3C0E94F33C66CF85E00E94BD3C0E94D3
:107C1000F33C60CF0E94763C809306010E94763C44
:107C2000809307010E94F33C55CF0E94763C80333D
:107C300009F41DC183E00E94BD3C80E00E94C73C66
:107C400049CF0E94763C809309020E94763C809343
:107C5000080280910C028E7F80930C020E94763C79
:107C6000853409F415C18091080290910902892B8D
:107C700089F000E010E00E94763CF801E85FFE4FDA
:107C800080830F5F1F4F80910802909109020817AF
:107C9000190788F30E94763C803209F045CF809125
:107CA0000C0280FF01C16091060170910701660F0F
:107CB000771F7093070160930601A0910802B091AD
:107CC00009021097C9F0E8E0F1E09B01AD014E0F09
:107CD0005F1FF999FECF32BD21BD819180BDFA9A17
:107CE000F99A2F5F3F4FE417F50799F76A0F7B1F4B
:107CF00070930701609306018091C00085FFFCCF5F
:107D0000F092C6008091C00085FFFCCFB092C60003
:107D1000E1CE83E00E94C73CDDCE82E00E94C73CFA
:107D2000D9CE0E94763C809309020E94763C8093D3
:107D300008028091060190910701880F991F909386
:107D40000701809306010E94763C853409F4A6C0A1
:107D500080910C028E7F80930C020E94763C8032D0
:107D600009F0B8CE8091C00085FFFCCFF092C6002C
:107D7000609108027091090261157105B9F140E046
:107D800050E080910C02A82FA170B82FB27011C0E2
:107D9000BB2309F45CC0E0910601F0910701319624
:107DA000F0930701E09306014F5F5F4F46175707B7
:107DB000E8F4AA2369F3F999FECF209106013091E6
:107DC000070132BD21BDF89A90B58091C00085FFB2
:107DD000FCCF9093C6002F5F3F4F30930701209355
:107DE00006014F5F5F4F4617570718F38091C00099
:107DF00085FDE5CE8091C00085FFF8CFE0CE81E023
:107E00000E94C73C67CE0E94763C803209F08CCE3F
:107E10008091C00085FFFCCFF092C6008091C00029
:107E200085FFFCCFE092C6008091C00085FFFCCFAB
:107E3000D092C6008091C00085FFFCCFC092C600E2
:107E40008091C00085FFFCCFB092C60043CEE09188
:107E50000601F091070194918091C00085FFFCCF4D
:107E60009093C6009CCF80E10E94C73C33CE0E9415
:107E7000763C0E94763C182F0E94763C112309F430
:107E800083C0113009F484C08FE00E94C73C22CE29
:107E900080910C02816080930C02E5CE80910C02EF
:107EA000816080930C0259CF809107018823880F4D
:107EB000880B8A2180930B02809106019091070123
:107EC000880F991F90930701809306018091080203
:107ED00080FF09C080910802909109020196909359
:107EE000090280930802F894F999FECF1127E091D6
:107EF0000601F0910701C8E0D1E08091080290915D
:107F00000902103091F40091570001700130D9F34B
:107F100003E000935700E89500915700017001308D
:107F2000D9F301E100935700E89509901990009169
:107F3000570001700130D9F301E000935700E89534
:107F40001395103498F011270091570001700130FB
:107F5000D9F305E000935700E895009157000170B0
:107F60000130D9F301E100935700E895329602976A
:107F700009F0C7CF103011F00296E5CF112480919F
:107F8000C00085FFB9CEBCCE8EE10E94C73CA2CD19
:0C7F900085E90E94C73C9ECDF894FFCF0D
:027F9C00800063
:040000030000780081
:00000001FF
